:020000040000FA
:060000000BEF0DF01200F1
:020006001200E6
:060008000FEF00F01200F2
:02000E00C250DE
:08001000020B01E0010E1200D9
:0800180040EF00F01200DACF06
:10002000E4FFE2CFDAFFE652D9CFE6FFE1CFD9FF16
:10003000E6529EA61DD0C950DF6E9E96090ED8804E
:100040002854000E295407E2DF50316EC69E32500C
:10005000C96E246A0BD03150376EDF50386EC69EA1
:100060003950C96E3A50326E010E246E286A296AE0
:10007000E552E552E7CFD9FFE552E5CFDAFF1100AF
:10008000D8CFE4FFE0CFE4FFE46EDACFE4FFE2CFC5
:10009000DAFFE9CFE4FFEACFE4FFF6CFE4FFF7CFE2
:1000A000E4FFF5CFE4FFF3CFE4FFF4CFE4FFFACFB2
:1000B000E4FF00EE3BF0140EE80403E3EECFE4FFB0
:1000C000FBD700EE00F0200EE80403E3EECFE4FFE0
:1000D000FBD7E652F2A4B5D0282A000E2922262A00
:1000E00027220FEC04F016EC04F0F3CF2EF0F4CF3F
:1000F0002FF001012650005D536E27500159546EB8
:1001000053C043F054C044F020C048F021C049F02F
:1001100030EC07F041C051F042C052F026C043F02D
:1001200027C044F022C048F023C049F030EC07F06B
:10013000515041244F6E52504220506E4FC043F0F8
:1001400050C044F000C148F001C149F0E5EC0CF0AA
:1001500043C02CF044C02DF02EC0E6FF2FC0E6FFB8
:100160002CC0E6FF2DC0E6FF69EC01F0E552E55238
:10017000E552E552DDEC02F0000E39144F6EFC0E34
:100180003A14506E4F502E24396E50502F203A6E34
:100190000101042B000E0523E8EC09F0F9EC09F04D
:1001A00001010C5134E0245021E022C020F023C092
:1001B00021F0FF0E3714226E030E3814236E246ACA
:1001C00000512624006F01512720016F010E005FAE
:1001D000000E015B010E0F0B05E0D89001330033D8
:1001E000E806FBE1266A276A010E366E0001FE5121
:1001F00006E12050221802E12150231804E00001FA
:10020000F06BF16B04D00001F02B000EF123010123
:100210000C5116E10F0ED8802654000E275410E220
:1002200022C020F023C021F0D2EC05F0F3CF22F061
:10023000F4CF23F026C000F127C001F1266A276A17
:10024000F294E55200EE1FF0200EE80403E3E5CF40
:10025000EDFFFBD700EE4EF0140EE80403E3E5CF0C
:10026000EDFFFBD7E5CFFAFFE5CFF4FFE5CFF3FFD6
:10027000E5CFF5FFE5CFF7FFE5CFF6FFE5CFEAFFE6
:10028000E5CFE9FFE5CFDAFFE550E5CFE0FFE5CFC9
:04029000D8FF100083
:0C0294000500971A0000800000005400D4
:1002A00000006D1A0000D40000002A0000006B1A44
:1002B00000003501000002000000691A0000FE0085
:1002C000000002000000521A0000000100001700A8
:0202D00000002C
:0E02D200D9CFE6FFE1CFD9FF0C0EE126FD0EDD
:1002E000DBCF02F0FE0EDBCF03F0FB0EDB50025C37
:1002F000006EFC0EDB500358016E040E00C0DBFFE5
:10030000050E01C0DBFF040EDBCF02F0050EDBCFD4
:1003100003F0046A056A03AE02D00468056802C0EF
:1003200041F003C042F004C043F005C044F0E6C011
:1003300046F0E7C047F0E8C048F0E9C049F027ECD4
:100340000BF03DC000F03EC001F0D950080FE96E3F
:10035000DACFEAFF0050EE260150ED22060EEEC085
:10036000DBFF070EEFC0DBFF080EDBCF00F0090E4E
:10037000DBCF01F0060EDBCF02F0070EDBCF03F080
:1003800003500118E8AE02D0013404D00050025CE2
:10039000015003580CE2060EDBCF43F0070EDBCF13
:1003A00044F0080E43C0DBFF090E44C0DBFF080E1B
:1003B000DBCF00F0090EDBCF01F0060EDBCF02F041
:1003C000070EDBCF03F0026C031E000E0322015068
:1003D0000318E8AE02D0033404D00250005C03508E
:1003E000015810E243684468060EDBCF48F0070E60
:1003F000DBCF49F003EC07F0080E41C0DBFF090E2C
:1004000042C0DBFF040EDBCF04F0050EDBCF05F0AE
:10041000066A076A05AE02D0066807680101235123
:10042000045C006E24510558016E25510658026E79
:1004300026510758036E0A0E00C0DBFF0B0E01C0E9
:10044000DBFF040EDBCF23F1050EDBCF24F1256BA0
:10045000266B24AF02D025692669650E1C6E1D6AC5
:100460001E6A1F6A0001E2511C5C186EE3511D58A0
:10047000196EE4511E581A6EE5511F581B6E040E7A
:10048000DBCF0CF0050EDBCF0DF00E6A0F6A0DAE60
:1004900002D00E680F68D6C041F0D7C042F0D8C075
:1004A00043F0D9C044F00CC046F00DC047F00EC078
:1004B00048F00FC049F027EC0BF03DC008F03EC0FB
:1004C00009F03FC00AF040C00BF0080EDBCF10F07F
:1004D000090EDBCF11F0126A136A11AE02D0126856
:1004E0001368DAC041F0DBC042F0DCC043F0DDC08D
:1004F00044F010C046F011C047F012C048F013C0DD
:1005000049F027EC0BF008503D24046E09503E20C2
:10051000056E0A503F20066E0B504020076E0A0EF3
:10052000DBCF14F00B0EDBCF15F0166A176A15AE91
:1005300002D016681768DEC041F0DFC042F0E0C0AC
:1005400043F0E1C044F014C046F015C047F016C0B7
:1005500048F017C049F027EC0BF004503D24006E22
:1005600005503E20016E06503F20026E075040208D
:10057000036E00C041F001C042F002C043F003C06E
:1005800044F018C046F019C047F01AC048F01BC02C
:1005900049F0CFEC06F041C01BF142C01CF143C052
:1005A0001DF144C01EF10C0EE15C02E2E16AE5526D
:1005B000E16EE552E7CFD9FF1200D9CFE6FFE1CFD8
:1005C000D9FF040EE1260001F251F05DF351F1591B
:1005D00004E301010C5101E005D10001FE5106E1E7
:1005E00038500C0BE842E842030804E101010C51C9
:1005F00001E0E8D0D88001011E51FF0A08E6FF0E95
:100600001B5DFF0E1C59FF0E1D59FF0E1E595CE2AB
:100610001BC141F01CC142F01DC143F01EC144F09A
:10062000B6EC06F042C004F043C005F044C006F04A
:1006300045C007F004C0E6FF05C0E6FF06C0E6FFC0
:1006400007C0E6FFCAEC0BF0E552E552E552E55271
:1006500041C000F042C001F043C002F044C003F0CA
:1006600000C042F001C043F002C044F003C045F0B6
:100670004EEC07F043C0DEFF44C0DDFFDECF00F0EC
:10068000DDCF01F000010050D45D0150D55904E2E6
:10069000D4C0DEFFD5C0DDFF020EDB6A030EDB6ACD
:1006A0008B80DECFE6FFDDCFE6FF2CEC0CF0E552D1
:1006B000E552020EDBCFE6FF030EDBCFE6FFFDECDB
:1006C0000BF0E552E5527DD01E35000E1E1909E6ED
:1006D000D880010E1B55000E1C55000E1D55000E36
:1006E0001E5560E21BC141F01CC142F01DC143F028
:1006F0001EC144F0B6EC06F042C004F043C005F061
:1007000044C006F045C007F004C0E6FF05C0E6FFA0
:1007100006C0E6FF07C0E6FFCAEC0BF0E552E55263
:10072000E552E55241C000F042C001F043C002F082
:1007300044C003F000C042F001C043F002C044F0E6
:1007400003C045F04EEC07F0020E43C0DBFF030E82
:1007500044C0DBFF020EDBCF00F0030EDBCF01F065
:1007600000010050D45D0150D55906E2020ED4C0FC
:10077000DBFF030ED5C0DBFFDE6ADD6A8B80DECFD8
:10078000E6FFDDCFE6FF2CEC0CF0E552E552020E61
:10079000DBCFE6FF030EDBCFE6FFFDEC0BF0E5520F
:1007A000E5520FD0000EE66EE66AFDEC0BF0E55266
:1007B000E552000EE66EE66A2CEC0CF0E552E552CE
:1007C0008B900FD0000EE66EE66AFDEC0BF0E55262
:1007D000E552000EE66EE66A2CEC0CF0E552E552AE
:1007E0008B9013D0F2C0F0F0F3C0F1F0000EE66E83
:1007F000E66AFDEC0BF0E552E552000EE66EE66AA5
:100800002CEC0CF0E552E5528B90040EE15C02E218
:10081000E16AE552E16EE552E7CFD9FF1200870E9B
:10082000E66ECEEC0CF0E55227EF0DF0D9CFE6FFE7
:10083000E1CFD9FF060EE12607EC00F0000901E048
:10084000FBD7C450DE6EDD6ADECF00F0DDCF01F0F5
:1008500000C001F0006A00C0DEFF01C0DDFFC35030
:10086000E76E000EDFCF00F0010EDBCF01F0E750A6
:100870000026000E012200C0DEFF01C0DDFF0101E5
:100880000C510AE1DECF00F0DDCF01F000C0F3FF34
:1008900001C0F4FFADD0ACD0DECF00F0DDCF01F071
:1008A000020E00C0DBFF030E01C0DBFF040EDB6A9B
:1008B000050EDB6AF6C000F0F7C001F0026A036AB9
:1008C000D950020FE96EDACFEAFF0050EE5E015018
:1008D000EE5A0250EE5A0350EE5AD950020FE96E0A
:1008E000DACFEAFFD890030EEB50000A08E6000EBC
:1008F000EE5C000EEE58000EEE58000EEE5808E2C8
:10090000020EDB6A030EDB6A040EDB6A050EDB6A8D
:10091000F8C041F0F9C042F0FAC043F0FBC044F027
:10092000020EDBCF46F0030EDBCF47F0040EDBCF29
:1009300048F0050EDBCF49F027EC0BF0020E3DC06E
:10094000DBFF030E3EC0DBFF040E3FC0DBFF050EE6
:1009500040C0DBFF020EDBCF41F0030EDBCF42F0E5
:10096000040EDBCF43F0050EDBCF44F0640E466E81
:10097000476A486A496ACFEC06F0020E41C0DBFFC5
:10098000030E42C0DBFF040E43C0DBFF050E44C074
:10099000DBFF020EDBCF42F0030EDBCF43F0040E91
:1009A000DBCF44F0050EDBCF45F04534000E451893
:1009B00009E6D880FF0E4254030E4354000E4454FF
:1009C000000E45540AE2020EDB68030EF36EF3CF0D
:1009D000DBFF040EDB6A050EDB6A020EDBCF00F0E4
:1009E000030EDBCF01F000C0F3FF01C0F4FF00D025
:1009F000060EE15C02E2E16AE552E16EE552E7CF04
:100A0000D9FF1200D9CFE6FFE1CFD9FF040EE126CE
:100A10000001F651F45D006EF551F755016E000EC0
:100A200000C0DFFF010E01C0DBFF020EDB6A030E18
:100A3000DB6A9C0E006E8F0E016E010E026E036A61
:100A400000C041F001C042F002C043F003C044F0D6
:100A5000DFCF46F0DBCF47F0020EDBCF48F0030ECE
:100A6000DBCF49F05BEC0CF041C0F8F042C0F9F08C
:100A700043C0FAF044C0FBF0040EE15C02E2E16A1C
:0C0A8000E552E16EE552E7CFD9FF12000D
:040A8C003DD88A9433
:100A9000266A276A0101320ED8800455000E0555DA
:100AA00015E2245013E10B5102E0000E01D0010EBB
:100AB0000B6F046B056B000ED8800655000E0755B2
:100AC00003E20607000E075B06C10AF136501AE082
:100AD000366A0C5117E0300E38140AE1EBEC08F0DE
:100AE00008C1E6FF4CEC08F0E5523BEC09F00AD0F7
:100AF00038A803D037507F0B086F38AA03D0280ED0
:100B0000066F076BC7D71200D9CFE6FFE1CFD9FF39
:100B1000E652DF6A9B809B829B849B869B88D3885E
:100B2000D38AD38C9B8C9B9E9268F00E936ED80ECA
:100B3000946E200E956EFC0E966E9698F28CF28E48
:100B4000D08ED50EE66E7FEC0CF0E552F1940F0ED0
:100B5000E66E670EE66EA30EE66E5FEC0BF0E552F6
:100B6000E552E5520C0EC16E040EE66E9BEC0CF0E5
:100B7000E5529F82E668B6EC0CF0E552E66A2CEC92
:100B80000CF0E552E668B1EC0AF0E552E66AFDECDD
:100B90000BF0E5522A6A2B6A366AE552E552E7CF36
:100BA000D9FF1200D9CFE6FFE1CFD9FFE652DF6AC5
:100BB000F30E3A1400093A6E3A9C3A9E3A983A9AE1
:100BC0000101132B000E1423143504E213513908CC
:100BD000000E14552AE2112B000E122311C100F051
:100BE00012C101F0030ED89001320032E804FBE19B
:100BF000D890015004E6080E005C000E015810E287
:100C000011C100F012C101F0030ED8900132003280
:100C1000E804FBE10050E66EB0EC08F0E55204D0C9
:100C2000E66AB0EC08F0E55204D0E66AB0EC08F0F1
:100C3000E55201010E5114E18A808A828A848A86F3
:100C4000156B166B0F2B000E1023103504E20F519D
:100C50000A08000E105504E2010E0E6F2A6A2B6A74
:100C60000E0537E12A2A000E2B22080ED8802A54BE
:100C7000000E2B542EE2EB0E155D030E165905E205
:100C8000140E1527000E162324D01569030E166FB7
:100C90000F2B000E1023103504E20F511408000E24
:100CA000105517E20FEC04F016EC04F0F3CFF4F05B
:100CB000F4CFF5F00001D90EF45D030EF55904E20E
:100CC000FE0EF46F030EF56F01010F6B106B020E39
:100CD0000E6F020E0E5D3EE1140ED8801555000E0B
:100CE000165505E2140E155F000E165B33D0156B1A
:100CF000166B0F2B000E1023103504E20F51140851
:100D0000000E105527E20FEC04F016EC04F0F3CFC0
:100D1000F6F0F4CFF7F00001230ED880F655000E60
:100D2000F75503E2010EF66FF76B01010F6B106BC5
:100D300002EC05F00101010E0C6F0E6B9486948895
:100D4000E66AE66E050EE66E96EC0BF0E552E552AD
:100D5000E5529D8615C1F3FF16C1F4FF00D0E552A0
:080D6000E552E7CFD9FF1200B4
:080D68003C9E0CD03C9E44AE01
:100D700009D0416C421E431E441EE86A42224322AF
:100D800044223C8E44C03EF043C03DF042C04EF091
:100D900041C04DF09E0E3F6E406A99EF07F03B6AEE
:100DA000E86A49AEDCEF06F0466C471E481E491E55
:100DB0004722482249223B1E44AEE7EF06F0416C31
:100DC000421E431E441E4222432244223B1E5BEC31
:100DD0000CF044BEFEEF06F03BAE000C416C421E30
:100DE000431E441EE86A4222432244223D6C3E1EBA
:100DF0003F1E401E3E223F224022000C3BBEEEEF33
:100E000006F03C88FF0C44C04EF043C04DF0435008
:100E10004802F4CF42F0F3CF41F044504902F4CFFE
:100E200044F0F3CF43F04802F3504226F4504322FB
:100E3000E86A44224D504902F3504226F4504322BE
:100E4000E86A442249AE29EF07F04D50435E4E5008
:100E5000445A4EAE000C4850435E4950445A000C70
:100E600043C04DF043504802F4CF42F0F3CF41F07D
:100E700044504902F4CF44F0F3CF43F04802F3501A
:100E80004226F4504322E86A44224D504902F3506E
:100E90004226F4504322E86A4422000C3C6AD5EC16
:100EA00007F03CB658EF07F03CA20ED03CB405D09A
:100EB0007F0E446EFF0E436E1FD0800E446E436A59
:100EC0001BD0446A436A18D03CB0FBD78F0E4560F4
:100ED000EDD77E0E4564F5D78E0E455C05E0D890C3
:100EE00044324332452AF8D73CA406D0436C441E12
:100EF000E86A442244AEE5D712007F0E456EFF0E2D
:100F0000446E436E426E12007F0E3CBEFF0E456E75
:100F100002D07F0E456E800E446E436A426AF3D75C
:100F20003CAE04D0800E456E446AF7D7456A446AE9
:100F3000F4D73E503D104E104D10F8E040BEF0D7B3
:100F40003EBE0CD03F504010EBE0D8904D364E36B0
:100F50003D363E363F06D8A04006F2D74050D4E199
:100F60003F28D2E04DAE11D07F0E4D1402E14EA0CD
:100F70000CD04E2AE86A3D223E2207E3D8803E325A
:100F80003D324E323F2A3F28BFE03F50C9E04EC0BD
:100F900042F03DC043F03E34446E3F30456E443233
:100FA000459E3CBE458E83EF07F04436453602E34E
:100FB0003C843C7E06E13C80456A446A436A426A5E
:100FC0001200452803E0D88044321200D890443201
:100FD00002E13C8212003C86120049364A3602E3A6
:100FE0003C8C3C7E06E13C884A6A496A486A476A0A
:100FF00012004A2803E0D88049321200D8904932C2
:06100000EAE13C8A120047
:0A100600D9CFE6FFE1CFD9FF020EBB
:10101000E126DE6ADD6ADECF00F0DDCF01F0100EE2
:10102000005C000E015826E2010EE76EFD0EDBCFDC
:1010300000F0FE0EDBCF01F0E7500016016A005011
:10104000E8B08C80E8A08C90D950FD0FE96EFF0EBF
:10105000DA20EA6E010E0F0B06E0EC52D890ED326A
:10106000EF32E806FAE18C828C92DF2A010E01E36E
:10107000DB2AD1D78C848C9401010A51E8B08C868C
:10108000E8A08C96020EE15C02E2E16AE552E16EB4
:10109000E552E7CFD9FF1200D9CFE6FFE1CFD9FF64
:1010A000020EE126DE6ADD6A0A0EF36EFE0EDBCF6B
:1010B000F4FFF350F45C0FE2FE0EEA6ADB34FE0B41
:1010C000EA36E96E9A0EE926000EEA22EECFDEFF3E
:1010D000EDCFDDFF34D00A0E046E04C049F0FE0EE1
:1010E000DBCF44F019EC0DF04450E96EEA6AD89079
:1010F000E936EA36800EE926000EEA22EECF02F04B
:10110000EFCF03F00A0E056E05C049F0FE0EDBCFEF
:1011100044F019EC0DF04050E96EEA6AD890E936D7
:10112000EA369A0EE926000EEA220250EE24006EFC
:101130000350EE20016E00C0DEFF01C0DDFFDECFF8
:10114000E6FFDDCFE6FF5FDFE552E552020EE15C30
:1011500002E2E16AE552E16EE552E7CFD9FF120003
:10116000D9CFE6FFE1CFD9FF020EE126DE6ADD6AC4
:10117000FE0EEA6ADB34FE0BEA36E96EB40EE926AF
:10118000000EEA22EECF02F0EFCF03F0FE0EEA6A85
:10119000DB34FE0BEA36E96EC40EE926000EEA22C5
:1011A0000250EE24006E0350EE20016E00C0DEFF00
:1011B00001C0DDFFDECFE6FFDDCFE6FF24DFE55235
:1011C000E552020EE15C02E2E16AE552E16EE552AF
:1011D000E7CFD9FF12003850800B02E08A8601D099
:1011E0008A9638500C0BE842E842030A37E0010ABD
:1011F00025E0030A13E0010A01E03CD08A808A82DC
:1012000001010B510001FE1502E0000E01D0010E9C
:10121000010BE8B08A84E8A08A942CD08A908A8254
:1012200001010B510001FE1502E0000E01D0010E7C
:10123000010BE8B08A84E8A08A941CD08A908A9234
:1012400001010B510001FE1502E0000E01D0010E5C
:10125000010BE8B08A84E8A08A940CD08A908A8234
:1012600001010B510001FE15010BE8B08A84E8A0D2
:061270008A9400D0120078
:0A127600D9CFE6FFE1CFD9FF040E47
:10128000E126DF6A030EDB6A010EDB6A020EDB6A0F
:10129000D950030FE96EDACFEAFF8350200B02E04A
:1012A000EF9001D0EF80D950030FE96EDACFEAFF5B
:1012B0008250400B02E0EF9201D0EF82D950030F31
:1012C000E96EDACFEAFF8250800B02E0EF9401D0A2
:1012D000EF84D950030FE96EDACFEAFF8050100B8C
:1012E00002E0EF9601D0EF860001FE51006ED9506A
:1012F000030FE96EDACFEAFF0050010BF36EF346FD
:10130000F346F346F346EF0EEF14F310EF6EF30ED1
:101310003A1400093A6E3A983A9A030EDB50FF5D90
:101320004AE0030EDB50FF19DF6E030EDB50DF14C3
:10133000E76E010EE7CFDBFFDF50FF15E76E020E11
:10134000E7CFDBFFD950010FE96EDACFEAFFEF50AC
:10135000010B04E0F30E3A1404093A6ED950010F60
:10136000E96EDACFEAFFEF50020B04E0F30E3A1415
:1013700008093A6ED950010FE96EDACFEAFFEF5053
:10138000040B04E0F30E3A140C093A6ED950010F25
:10139000E96EDACFEAFFEF50100B01E03A88D9503E
:1013A000020FE96EDACFEAFFEF50100B01E03A8A44
:1013B0000001F06BF16B030EDBCFFFF0040EE15C7C
:1013C00002E2E16AE552E16EE552E7CFD9FF120091
:1013D000929289828F0EE66ECEEC0CF0E5529694D6
:1013E0008D949684BF0EE66ECEEC0CF0E55227EF9E
:1013F0000DF0D9CFE6FFE1CFD9FF020EE12607ECD1
:1014000000F0000901E0FBD7C450DE6EDD6ADECFDC
:1014100000F0DDCF01F000C001F0006A00C0DEFF87
:1014200001C0DDFFC350E76E000EDFCF00F0010EFC
:10143000DBCF01F0E7500026000E012200C0DEFFE6
:1014400001C0DDFFDECF00F0DDCF01F0FA0E005C61
:10145000000E015818E20101000ED8803355000E2D
:10146000345507E20001010EFE6F0101316B326B52
:1014700009D0332B000E34230101010E0B6F010143
:10148000046B056B15D00101100ED8803155000E8C
:10149000325502E2336B346B5A0ED8803155000E50
:1014A000325503E20001FE6B03D0312B000E3223D4
:1014B000020EE15C02E2E16AE552E16EE552E7CF3D
:0414C000D9FF12003E
:0C14C400940EF66E020EF76E000EF86E2D
:1014D00001010900F5502C6F0900F5502D6F03E153
:1014E0002C6701D03DD00900F550276F0900F55059
:1014F000286F0900F550296F09000900F550E96EC1
:101500000900F550EA6E090009000900F5502A6F3C
:101510000900F5502B6F09000900F6CF2EF1F7CF27
:101520002FF1F8CF30F127C1F6FF28C1F7FF29C10D
:10153000F8FF01012A5302E12B5307E00900F5509F
:10154000EE6E2A07F8E22B07F9D72EC1F6FF2FC15E
:10155000F7FF30C1F8FF01012C07000E2D5BBFD74C
:02156000120077
:0E156200D9CFE6FFDACFE6FFE1CFD9FFE2CF27
:10157000DAFFE652E652E652E652F8CF02F0F6CF34
:1015800003F00C0EBA6E050EF66EF76A300EF86EAA
:101590000800F550010B03E0010EDB6802D0010EDC
:1015A000DB6A010EDB5002E0949201D09396CA945C
:1015B000FD0EDB50CB6ECA8402C0F8FF03C0F6FFFD
:1015C000040EE15C02E2E16AE552E16EE552E5CF2C
:0815D000DAFFE7CFD9FF12009A
:0815D800D9CFE6FFE1CFD9FFF6
:1015E000E652DF5000D0E552E552E7CFD9FF1200B6
:1015F000D9CFE6FFE1CFD9FFE552E7CFD9FF1200FF
:10160000D9CFE6FFE1CFD9FFFE0EDB50EA6A370FF4
:10161000E96E000EEA22EF5000D0E552E7CFD9FF85
:101620001200D9CFE6FFE1CFD9FFFE0EDB50396EB5
:10163000E552E7CFD9FF1200D9CFE6FFE1CFD9FFBE
:0E164000FE0EDB503A6EE552E7CFD9FF1200E6
:02164E00415009
:101650004602F3CF3DF0F4CF3EF04702F3503E2672
:10166000000EF4203F6E41504802F3503F26000E1A
:10167000F420406E41504902F35040264250460249
:10168000F3503E26F4503F22000E402242504702C3
:10169000F3503F26F450402242504802F350402677
:1016A00043504602F3503F26F45040224350470235
:0E16B000F350402644504602F35040261200EC
:0216BE00D9CF82
:1016C000E6FFDACFE6FFE1CFD9FFE2CFDAFFC26A69
:1016D000C06AFC0EDB407F0B3C0BC26EFC0EDB389D
:1016E000F00B300B006EFB0EDB500F0B0010C16EC9
:1016F000FD0EDB50040DF350380B016EFD0EDB3890
:101700000F0B070B006EFD0EDB50800B001001105D
:10171000C06EFC0EDBAE03D09E9C9D8CF28CC28012
:0C172000E552E5CFDAFFE7CFD9FF120059
:04172C00D9CFE6FF2C
:10173000DACFE6FFE1CFD9FFE2CFDAFF3F0EC716DF
:10174000C66AFD0EDB50C612FB0EDB50C712FC0E44
:10175000DB50030A09E0010A04E0020A06E1C78C33
:1017600004D0C78CC68801D0C688FD0EDB50050AA0
:1017700005E0010A05E19486928A03D0948601D09F
:1017800094969488949AC68AE552E5CFDAFFE7CF1B
:04179000D9FF12006B
:0C179400D9CFE6FFDACFE6FFE1CFD9FFA6
:1017A000E2CFDAFFE652E652D950FD0F006EFF0E8F
:1017B000DA2000C0DEFFDD6EDECFE9FFDDCFEAFF1D
:1017C000EF9EFA0EDBCF00F0FB0EDBCF01F0FC0E3C
:1017D000DBCF02F0FD0EDBCF03F000C041F001C013
:1017E00042F002C043F003C044F0E552E552E55236
:0A17F000E5CFDAFFE7CFD9FF1200C2
:0617FA00D9CFE6FFDACFB3
:10180000E6FFE1CFD9FFE2CFDAFFE652E652FC0E67
:10181000DBCF00F0FD0EDBCF01F0060ED8900036D6
:101820000136E804FBE100C0DEFF01C0DDFF010E70
:10183000DB50BB6EDF50E840E8403F0B300B006EE2
:10184000CF0EBA140010BA6EE552E552E552E5CF5C
:08185000DAFFE7CFD9FF120017
:08185800D9CFE6FFDACFE6FF6D
:10186000E1CFD9FFE2CFDAFFE652E652FC0EDBCF42
:1018700000F0FD0EDBCF01F0060ED89000360136E9
:10188000E804FBE100C0DEFF01C0DDFF010EDB501C
:10189000BE6EDF50E840E8403F0B300B006ECF0ECD
:1018A000BD140010BD6EE552E552E552E5CFDAFFFA
:0618B000E7CFD9FF120092
:0A18B600406A3F6A3E6A3D6A200E58
:1018C000E76ED89041364236433644363D363E3692
:1018D0003F36403646503D5C47503E5848503F5892
:1018E0004950405809E346503D5E47503E5A4850E3
:0E18F0003F5A4950405A412AE72EE4D71200D1
:0218FE00D9CF40
:10190000E6FFDACFE6FFE1CFD9FFE2CFDAFFFD0E47
:10191000DB507F0BD56ED76AD66AF294FD0EDBAE34
:1019200002D0F28A01D0F29AD58EE552E5CFDAFFE5
:06193000E7CFD9FF120011
:0A193600D9CFE6FFDACFE6FFE1CFDC
:10194000D9FFE2CFDAFFFD0EDB50FB0BCA6ECC6A8B
:101950009E92FD0EDBAE02D09D8201D09D92CA8484
:0C196000E552E5CFDAFFE7CFD9FF120017
:04196C00D9CFE6FFEA
:10197000DACFE6FFE1CFD9FFE2CFDAFF0C0EBD12DE
:101980009494CA94FD0EDB50CB6ECA84E552E5CF29
:0C199000DAFFE7CFD9FF12009494120098
:04199C00D9CFE6FFBA
:1019A000DACFE6FFE1CFD9FFE2CFDAFFC30EC214F0
:1019B000006EFD0EDB407F0B3C0B0010C26EE5524B
:0A19C000E5CFDAFFE7CFD9FF1200F0
:0619CA00406A3F6A100EA6
:1019D000E76ED890433644363F36403648503F5C39
:1019E0004950405805E348503F5E4950405A432A09
:0619F000E72EF0D7120003
:0A19F600000EF36E00EE00F0060E86
:101A000001D81200EA6002D0EE6AFCD7F350E96018
:061A10001200EE6AFCD793
:0A1A160015EE00F025EE00F0F86A6E
:101A20003C9C62EC0AF003EC00F046EC05F0FBD7BE
:021A30001200A2
:0E1A3200406A080EE76ED890443640364950A0
:0E1A4000405C02E3406E442AE72EF7D7120006
:021A4E00C28252
:021A5000120082
:0E1A52001E000800000000000101000000005E
:091A60000000000000000000007D
:021A690000007B
:021A6B00000079
:031A6D00FF03E88C
:101A700003000001000000A00F00004B0000000167
:101A80000000000100E803F4010000F401FF03007E
:071A900000640000000000EB
:091A97002C2A20200D2829282109
:101AA00022290A2D0A20282D2A292A004000100167
:101AB00000D0948004C290C214920452145294C074
:101AC00004D294D2140001002002000000252A2C28
:101AD0002220282C2A242A252A242A00000000005B
:0B1AE0000040000000C00400000000F7
:020000040030CA
:010003001EDE
:00000001FF
